:0C0000000C9493000C94CC010C94DB01D8
:040024000C944602F0
:04002C000C940D061D
:1400540000FCE1D4BCA8968D7E70695E534A463E37342E29C8
:140068002500FCE1D4BCA8968D7E70695E534A463E37342EB8
:14007C0029253F065B4F666D7D077F6F777C395E797140003A
:1400900000FCE1D4BCA8968D7E70695E534A463E37342E298C
:1400A40025010000FCE1D4BCA8968D7E70695E534A463E37DD
:1400B800342E292500FCE1D4BCA8968D7E70695E534A463E76
:1400CC0037342E2925000000FCE1D4BCA8968D7E70695E53F9
:1400E0004A463E37342E2925796F75722063686172206172D7
:1400F400652020203A0000FCE1D4BCA8968D7E70695E534A6F
:14010800463E37342E29250000FCE1D4BCA8968D7E70695E8B
:09011C00534A463E37342E2925D2
:14012600CFE5D4E0CDBFDEBFC451D0400AEA08830024E1E3A8
:14013A00F1E011E0E839F10711F00192FBCF0083E4E5F0E05C
:14014E00A0E6B0E011E000E00BBFE532F10721F0C8953196A8
:140162000D92F9CF0E944D05FFCFAA92BA925801BB9A83B7F0
:14017600886483BF83B78F7783BF83B7806283BF83B78F7E20
:14018A0083BF83B7816083BF83B7897F83BF222422BE0FEF1A
:14019E0010E095010E94460724E630E00E94A6060CBFB9905C
:1401B200A9900895AA924A93A02E44270BC0A7FE02C0C09A85
:1401C60001C0C098C29A00000000C298AA0C4395483098F3C5
:1401DA004991A9900895AA92CA92A22EC02EBED0C198C298CA
:1401EE0001E01C2D0E949A070095DEDF8AE890E0EA2DFF271F
:14020200E80FF91F0081D6DFC19AC990A99008950E946C0704
:14021600E22EA02EC8848AE890E0EE2DFF27E80FF91F4081B7
:14022A00CC2011F0406801C04F7798D0C198C29805E010E0B4
:14023E000E947E0601E01A2D0E949A070095B4DF05E010E01E
:140252000E947E06042FAEDFC19A0C9456070E946C07E22E35
:14026600C02E2197AE2C2CC08AE090E0A0E0B0E009851A8501
:14027A002B853C85BA93AA939A938A930E94DE06402F2224F0
:14028E002882242F0A2DBEDFAA948AE090E0A0E0B0E00985D5
:1402A2001A852B853C85BA93AA939A938A930E94DC06098750
:1402B6001A872B873C8708EC10E00E948C06C394EC1490F629
:1402CA0021960C9456070E946A07C22EE02E21974F85AC2CF7
:1402DE003DC08AE090E0A0E0B0E00B851C852D853E85BA9332
:1402F200AA939A938A930E94DE06602F242E33244C2C5524C2
:14030600421853082A2C33242414350431F481E08883262F2A
:14031A00022D7ADF05C022242882262F0A2D74DFAA948AE00B
:14032E0090E0A0E0B0E00B851C852D853E85BA93AA939A93DE
:140342008A930E94DC060B871C872D873E8708EC10E00E94D2
:140356008C06E394CE1408F0C0CF21960C945F07B89AB99ABF
:14036A00BA9AC19AC29A089585B78E7F85BF85B7826085BFE8
:14037E008BB780648BBF85B78B7F85BF85B7886085BF8BB7C7
:1403920080688BBF08958A939A938FB78A938FEF9FEF9093AC
:1403A600B2008093B10089918FBF9991899118958A939A932A
:1403BA008FB78A9381E090E09093B2008093B10089918FBFFA
:1403CE00999189911895D0983F983E9A3D9887B1807E87B9C8
:1403E200379A359A329886B1836086B980B78F7180BF80B797
:1403F6008F7E80BF369A08950E947F0759016801249780E034
:14040A00888389838A838B83349B38C0A50124B035B044241E
:14041E005524288239824A825B82B6012AC08AE090E0A0E048
:14043200B0E0088119812A813B81BA93AA939A938A930E9426
:14044600DE06C02EDD242C2D042F0E94F000415050408AE026
:14045A0090E0A0E0B0E0088119812A813B81BA93AA939A93CD
:14046E008A930E94DC06088319832A833B836F5F7F4FA616EF
:14048200B7069CF624960C9488072A923A920A931A938A933F
:140496009A93AA93EA932FB62A928DE382BF8091B100909136
:1404AA00B2008130E0E09E0749F48091DD009091DE000196B5
:1404BE009093DE008093DD008091B1009091B2008F3FEFEFF8
:1404D2009E0749F48091DD009091DE0001979093DE0080939B
:1404E600DD008091DD009091DE008030E0E09E0734F487E094
:1404FA0090E09093DE008093DD0087E090E02090DD00309069
:14050E00DE008215930534F4222433243092DE002092DD00D8
:140522002090DD003090DE0001E0122D0E949A07202E209435
:1405360025BA29902FBEE991A9919991899119910991399027
:14054A0029901895222423BE22BE83EC8CBF85E083BF81E06E
:14055E0089BF08950BC02090DD003090DE0001E0122D0E94EC
:140572009A07202E209425BAF4CF0895BB9A83B7886083BFDA
:1405860083B78F7B83BF83B7806183BF83B78F7D83BF83B7BC
:14059A008B7F83BF83B7826083BF83B78E7F83BF089583B743
:1405AE00806183BF83B78F7D83BF089583B78F7E83BF83B72E
:1405C2008F7D83BF0895AA92BA92580180911B01813011F476
:1405D6000E94B405AA2041F4BB2031F4EBDF04EF11E00E9467
:1405EA008C061CC088EC90E0F501E80FF91F20802CBED7DF66
:1405FE000BED11E00E948C06D9DF02E310E00E948C0600C04B
:1406120085B3806C85BB06E910E00E948C0685B38F7385BBE3
:14062600B990A9900895AA92BA92580180911B01813011F4DD
:14063A000E94B405AA2041F4BB2031F4B9DF08EE13E00E942F
:14064E008C062BC088EC90E0F501E80FF91F20802CBEA5DF24
:1406620006EB13E00E948C06A7DF02E310E00E948C068AE073
:1406760090E08A159B055CF085B3806E85BB06E910E00E948E
:14068A008C0685B38F7185BB0AC085B3806F85BB06E910E042
:14069E000E948C0685B38F7085BBB990A9900895AA92BA92F6
:1406B200580180911B01813011F40E94B405AA2041F4BB20C3
:1406C60031F478DF0AEF10E00E948C062BC088EC90E0F501C2
:1406DA00E80FF91F20802CBE64DF01EE10E00E948C0666DFD8
:1406EE0009E110E00E948C068AE090E08A159B055CF085B34D
:14070200886F85BB06E910E00E948C0685B3877085BB0AC060
:1407160085B38C6F85BB06E910E00E948C0685B3837085BBDE
:14072A00B990A9900895AA92BA92580180911B01813011F4D8
:14073E000E94B405AA2041F4BB2031F437DF0DE710E00E94B1
:140752008C062BC088EC90E0F501E80FF91F20802CBE23DFA1
:1407660004E610E00E948C0625DF09E110E00E948C068AE0F5
:14077A0090E08A159B055CF085B38E6F85BB06E910E00E947A
:14078E008C0685B3817085BB0AC085B38F6F85BB06E910E03D
:1407A2000E948C0685B3807085BBB990A99008950BE010E0AD
:1407B6007BDF0BE010E078DF0BE010E002DF0BE010E072DFBB
:1407CA000BE010E06FDF0BE010E0F9DE09E010E069DF0BE034
:1407DE0010E066DF0CE010E063DF0BE010E0A1DF09E010E080
:1407F2009EDF08E010E05ADF09E010E057DF0BE010E0E1DEBC
:140806000BE010E051DF09E010E04EDF0BE010E04BDF09E0DF
:14081A0010E089DF08E010E086DF07E010E042DF09E010E064
:14082E003FDF08E010E0C9DE09E010E039DF09E010E036DF3A
:1408420008E010E0C0DE05E010E030DF07E010E02DDF08E07D
:1408560010E0B7DE0CE010E0B4DE0CE010E024DF0BE010E0E1
:14086A0021DF09E010E01EDF0CE010E01BDF0BE010E0A5DE70
:14087E000BE010E015DF09E010E012DF08E010E00FDF09E01E
:1408920010E00CDF0BE010E096DE0027112793DE0BE010E07D
:1408A60003DF09E010E000DF08E010E0FDDE09E010E0FADE40
:1408BA000BE010E0F7DE09E010E0F4DE08E010E0F1DE09E03F
:1408CE0010E0EEDE05E010E0EBDE07E010E0E8DE08E010E047
:1408E200E5DE09E010E0E2DE07E010E06CDE0027112769DEDF
:1408F6000027112766CE09E010E063DE09E010E060DE0AE040
:14090A0010E05DDE0BE010E05ADE0BE010E057DE0AE010E0B1
:14091E0054DE09E010E051DE08E010E04EDE07E010E04BDE87
:1409320007E010E048DE08E010E045DE09E010E042DE09E0D7
:1409460010E03FDE09E010E0AFDE08E010E0ACDE08E010E0F0
:14095A0036DE08E010E033DE09E010E030DE09E010E02DDEC1
:14096E000AE010E02ADE0BE010E027DE0BE010E024DE0AE0EC
:1409820010E021DE09E010E01EDE08E010E01BDE07E010E0F5
:1409960018DE07E010E015DE08E010E012DE09E010E00FDEFF
:1409AA0008E010E00CDE08E010E07CDE07E010E079DE07E030
:1409BE0010E003DE07E010E000DE08E010E0FDDD08E010E015
:1409D200FADD09E010E0F7DD07E010E0F4DD08E010E0F1DD3F
:1409E60009E010E061DE0AE010E05EDE09E010E0E8DD07E04A
:1409FA0010E0E5DD08E010E0E2DD09E010E052DE0AE010E0BD
:140A0E004FDE09E010E0D9DD08E010E0D6DD07E010E0D3DD06
:140A220008E010E0D0DD02E110E0CDDD0BE010E0CADD09E053
:140A360010E0C7DD09E010E0C4DD0AE010E0C1DD0BE010E04B
:140A4A00BEDD0BE010E0BBDD0AE010E0B8DD09E010E0B5DDB0
:140A5E0008E010E0B2DD07E010E0AFDD07E010E0ACDD08E072
:140A720010E0A9DD09E010E0A6DD08E010E0A3DD08E010E06E
:140A860013DE07E010E010DE07E010E09ADD07E010E097CD1D
:140A9A002197F89480E884BF84BF8FEF84BB85BB0E94EA018C
:140AAE000E94B9010E94B3010CE010E00E94490622242882C5
:140AC20021E000270E94090104E610E00E948C06222428824E
:140AD60022E001E00E94090104E610E00E948C06222428827F
:140AEA0023E002E00E94090104E610E00E948C062224288269
:140AFE0024E003E00E94090104E610E00E948C062224288253
:140B120025E004E00E94090104E610E00E948C06222428823C
:140B260026E005E00E94090104E610E00E948C062224288226
:140B3A0027E006E00E94090104E610E00E948C062224288210
:140B4E0028E007E00E94090104E610E00E948C06FFCF03D049
:140B6200FECF219608954A93442753C080911B01813009F02C
:140B76004EC080913101813431F480913201843411F441E01E
:140B8A0015C080913101833531F480913201803511F442E042
:140B9E000BC080913101873531F480913201813411F443E033
:140BB20001C042E3413049F0423071F04330B1F0413038F11E
:140BC6004233D1F024C027E030E004E010E00E94FF011DC097
:140BDA00F8940E94BF02222420921B0178940E94D90313C0A7
:140BEE00F8940E94A702222420921B0178940BC004EF10E04E
:140C02000E94640601E311E00E946406222420921B01ACCF62
:140C1600499108952A928A939A93EA93FA932FB62A922CB0C6
:140C2A0020929501822D8A3249F481E08093970122242092C2
:140C3E00960120921B011EC0809195018A3039F422242092D9
:140C5200970181E080931B0113C080919701813079F420901C
:140C66009601822D8F5F8093960181E391E0E22DFF27E80F9B
:140C7A00F91F20909501208229902FBEF991E9919991899178
:140C8E0029901895529880B5866880BD80B5877880BD599A3E
:140CA20080B58F7F80BD1801232C332420BC09B98AB1886935
:140CB6008AB908955F9BFECF0CB108955D9A0CB908954A93F3
:140CCA005A93A80109C0FA010081F6DF4F5F5F4F08EC10E026
:140CDE000E947E06FA012080222099F70AE0EADF08EC10E0D8
:140CF2000E947E065991499108954A935A934427552703C0F3
:140D060000004F5F5F4F40175107D4F35991499108950E9404
:140D1A007507442755270CC06627772700006F5F7F4F8DE75B
:140D2E0090E068177907C4F34F5F5F4F401751078CF30C9461
:140D42007A076894DA92D12E04C0E894DA92D12ED32617FFFB
:140D560004C0109500950F5F1F4F37FF04C0309520952F5FAD
:140D6A003F4F0E94C306D7FE04C0109500950F5F1F4FD99064
:140D7E000895689401C0E894EA92FA928A93EE24FF2480E1D0
:140D9200000F111FEE1CFF1CE216F30618F0E21AF30A03955F
:140DA6008A95A1F716F40E2D1F2D8991F990E9900895E894BC
:140DBA0001C0689430D0CC2409C0E89401C068942AD037FD48
:140DCE000E949107B7FD52D0772488249924AA24BB2442D03E
:140DE200C1F045D0B1F0E8E2000F111F221F331F771C881CC3
:140DF600991CAA1CBB1C88169906AA06BB0628F0881A990A8C
:140E0A00AA0ABB0A0395EA9559F726F4082D192D2A2D3B2DA0
:140E1E0013C07A928A929A92AA92BA92CA92EA938A939A93EE
:140E3200AA93BA938B859C85AD85BE85C32E0EF0CB260895FF
:140E4600C7FC0E949107B991A99199918991E991C990B990B7
:140E5A00A99099908990799024960895E02FE12BE22BE32B73
:140E6E000895E82FE92BEA2BEB2B089580959095A095B0952C
:140E82008F5F9F4FAF4FBF4F08950A921A928A939A93029FA4
:140E9600C001129F900D039F900D8C019991899119900990E7
:140EAA000895A990B990C990D990E990F990499159910895F0
:140EBE00A990B990C990D990E990F990499159916991799112
:140ED20008957A936A935A934A93FA92EA92DA92CA92BA927F
:140EE600AA9208957A936A935A934A930895499159916991F0
:140EFA00799108957A936A935A934A93DA92CA92BA92AA9219
:140F0E000895A990B990C990D9904991599169917991089589
:140F220000951095209530950F5F1F4F2F4F3F4F089511234E
:0A0F360019F0000F1A95FBCF089583
:00000001FF
